:020000040001F9
:10F000003043002019F2010021F2010023F2010037
:10F0100025F2010027F2010029F2010000000000A2
:10F020000000000000000000000000002BF20100C2
:10F030002DF20100000000002FF2010031F201006A
:10F040002DFB010033F20100AD000200F1FC0100D4
:10F0500001FD010033F2010029F90100A9FB0100C3
:10F0600033F2010033F2010033F2010033F2010008
:10F0700033F2010033F2010033F2010033F20100F8
:10F0800033F2010085FB010033F2010033F201008D
:10F0900011FD010033F2010015FD010033F2010002
:10F0A00033F2010033F201006100020033F201008B
:10F0B00033F2010033F20100000000000000000004
:10F0C00033F2010033F2010033F2010033F20100A8
:10F0D00033F2010033F2010033F2010000000000BE
:10F0E0000000000000000000000000000000000020
:10F0F0000000000000000000000000000000000010
:10F1000000000000000000000000000000000000FF
:10F1100000000000000000000000000000000000EF
:10F1200000000000000000000000000000000000DF
:10F1300000000000000000000000000000000000CF
:10F1400000000000000000000000000000000000BF
:10F1500000000000000000000000000000000000AF
:10F16000000000000000000000000000000000009F
:10F17000000000000000000000000000000000008F
:10F18000000000000000000000000000000000007F
:10F19000000000000000000000000000000000006F
:10F1A000000000000000000000000000000000005F
:10F1B000000000000000000000000000000000004F
:10F1C000000000000000000000000000000000003F
:10F1D000000000000000000000000000000000002F
:10F1E000000000000000000000000000000000001F
:10F1F000000000000000000000000000000000000F
:10F20000DFF810D000F01AFB00480047ED2E020096
:10F21000AFF300803043002006488047064800478F
:10F22000FEE7FEE7FEE7FEE7FEE7FEE7FEE7FEE7B6
:10F23000FEE7FEE739FD010001F201002DE9F05F74
:10F240000546002092469B46884606468146402455
:10F250001BE0284641464746224600F005F9534642
:10F260005A46C01A914110D311461846224600F062
:10F27000ECF82D1A67EB01084F46224601200021C9
:10F2800000F0E3F817EB00094E41201EA4F1010441
:10F29000DFDC484631462A464346BDE8F09F40EA57
:10F2A00001039B0703D009E008C9121F08C0042A04
:10F2B000FAD203E011F8013B00F8013B521EF9D2EB
:10F2C0007047D2B201E000F8012B491EFBD2704713
:10F2D0000022F6E710B513460A4604461946FFF722
:10F2E000F0FF204610BD2DE9FE4F81EA030404F033
:10F2F000004421F0004100944FF0000B23F0004344
:10F3000050EA01045ED052EA03045BD0C3F30A540E
:10F31000C1F30A552C44A4F2F3340194A0FB025427
:10F32000C1F3130141F48011C3F3130343F48013B9
:10F3300001FB024400FB034E840A970A44EA81540D
:10F3400047EA8357A4FB076802958D0A05FB0785EA
:10F350004FEA932C04FB0C542705029D4FEA0658F4
:10F3600047EA1637B5EB08056EEB070C870E920ED1
:10F3700047EA811742EA8312A7FB0201B6EB0B01B1
:10F3800064EB00042B0D43EA0C335E1844EB1C5075
:10F39000DA465146E7FB0201C5F313044FEA0B338B
:10F3A00043EA14534FEA0432019C43EA0603A4F1F2
:10F3B0000C040294009CCDE900B400F0ABF803B05B
:10F3C000BDE8F08F00200146F9E70EB5C10F80EAD5
:10F3D000E0700844CA07002140F233438DE80E0074
:10F3E0000A460B4600F096F803B000BD00F000425C
:10F3F00030F000400AD0C10D01F56071C0F3160075
:10F4000042EA0151C20840071143704700200146FB
:10F41000704701F0004330B421F0004150EA01028E
:10F4200006D00A0DA2F56072C1F31301002A02DCB6
:10F4300030BC00207047440F44EAC104C100E0180A
:10F4400030BC00EBC25000F01FB8202A04DB203A89
:10F4500000FA02F1002070479140C2F1200320FA27
:10F4600003F3194390407047202A04DB203A21FA25
:10F4700002F00021704721FA02F3D040C2F12002CD
:10F4800091400843194670470029A8BF7047401CA7
:10F49000490008BF20F00100704710B4B0FA80FCAA
:10F4A00000FA0CF050EA010404BF10BC704749B1E7
:10F4B000CCF1200421FA04F411FA0CF118BF012157
:10F4C00021430843A3EB0C01CB1D4FEA00614FEA37
:10F4D000102042BF002010BC704700EBC350104406
:10F4E0000029A4BF10BC7047401C490008BF20F091
:10F4F000010010BC704710B5141E73F1000408DA47
:10F50000401C41F1000192185B411A4301D120F0E7
:10F51000010010BD2DE9F04D92469B4611B1B1FAA4
:10F5200081F202E0B0FA80F220329046FFF78DFFC0
:10F5300004460F4640EA0A0041EA0B0153465A4688
:10F54000084313D0114653EA010019D0C8F1400214
:10F550005046FFF789FF05460E465046594642463B
:10F56000FFF773FF084305D0012004E02046394629
:10F57000BDE8F08D0020054346EAE0762C43374392
:10F580000A986305E40AA0EB08000022FD0A44EA99
:10F5900047540A3002D500200146E9E70105101959
:10F5A0006941DDE9084500196941BDE8F04DA2E770
:10F5B0002DE9FE4F804681EA0300C00F0C46009003
:10F5C00021F0004123F00045B8EB0200A94105D22B
:10F5D0004046214690461C460B46024623F000401A
:10F5E000104347D0270DC7F30A00C3F30A51029016
:10F5F000401A019040286BDAC3F3130040F4801BDB
:10F600000098924620B10023D2EB030A63EB0B0B68
:10F6100001985946C0F140025046FFF716FF0646D2
:10F620000D4650465946019A00F01AF910EB0800B1
:10F630006141002487EA115284EAE7731A4340D0FB
:10F64000009A62B3019A012A4FEA075215DC001BA7
:10F6500061EB02014FF0004202EA0752CDE900429D
:10F66000001C41F5801132462B46FFF753FF03B0D3
:10F67000BDE8F08F40462146F9E7001B61EB02012F
:10F68000001C41F5801300185B412018A2F50017FB
:10F6900047EB030140EAD570B6196D4111E06D08E2
:10F6A0004FEA360645EAC0754FEA0752001B61EB88
:10F6B0000201001C41F5801149084FEA3000001991
:10F6C000514132462B4603B0BDE8F04FFFF713BF60
:10F6D0000098012240000023D0EB020263EBE073AC
:10F6E000009821464FEAE074B8EB000061EB04019A
:10F6F000E9E783F000435BE781F0004158E72DE93B
:10F70000F04D81EA030404F0004B21F0004514465B
:10F710004FF0000A23F0004150EA050220D054EADD
:10F7200001021DD0C5F30A570246C5F31303C1F306
:10F730001300C1F30A5640F4801543F48013A7EB7D
:10F740000608101BD64608F2FD3873EB050002D3FD
:10F7500008F1010801E092185B41B8F1000F03DAEB
:10F7600000200146BDE8F08D00204FF480110646D0
:10F7700084460EE0171B73EB050705D3121B63EBE2
:10F78000050306434CEA010C49084FEA3000921881
:10F790005B4150EA0107EDD152EA030012D082EA40
:10F7A000040083EA0501084305D0101BAB4106D2D3
:10F7B0000122002306E000224FF0004302E06FF038
:10F7C000010253101AEB06004CEB085110EB0A0033
:10F7D00041EB0B01BDE8F04DFFF78DBE70B521F098
:10F7E000004303430CD0C1F30A550024D5EB0405B4
:10F7F00064EB0403D617AD1AB34102DB00200146C7
:10F8000070BD201841EB025170BD000030B5041EE0
:10F8100071F1000404DB4FF00044404264EB01014D
:10F82000141E73F1000405DB1C464FF000435242E6
:10F8300063EB0403994208BF904230BD064C074D6C
:10F8400006E0E06840F0010394E8070098471034B0
:10F85000AC42F6D3FFF7D8FCF05B0200105C02006C
:10F86000202A06DBCB17203A41FA02F043EAE07384
:10F8700006E041FA02F3D040C2F120029140084371
:10F88000194670472DE9F04D00231A461B1A8A418C
:10F8900003DB00200146BDE8F08DC1F30A52C1F33D
:10F8A000130141F480154FF0000BD10702D100186D
:10F8B0006D41521E0027044640F2FF11384601EB0D
:10F8C000620A3E468046024600204FF48011FFF750
:10F8D000CBFDC2197141BB1846EB0100B4EB030C20
:10F8E00075EB000C04D3E41A65EB000517460E46D1
:10F8F000241908F101006D4180463428E3DDF9192F
:10F9000046EB0600091BA84103D24FF0FF32134615
:10F9100001E0002213461BEB070046EB0A51BDE84D
:10F92000F04DFFF7E8BD00002DE9F04700268CB050
:10F93000DFF86091B0464FF4807501243746069693
:10F94000284604F01BFC38B1D9F80403204203D048
:10F95000284604F009FC26432D1D64007F1CADB22F
:10F96000082FEDD34FF4BE74204604F007FC48B1D5
:10F97000204604F0F9FB46F0004606AA01210020CB
:10F9800004F0DEFB444D16F0FF0F15D001270024D4
:10F9900037420DD009EB8401D1F81005D1F81015CC
:10F9A000C0F3042055F82420C1F3014102B190476F
:10F9B0007F00641C082CEBD3002E67DA4FF0FF3079
:10F9C000CDE9088000263446281910F8507F90F9B8
:10F9D000000027F0C008401C44D009A9404603F0AD
:10F9E0008BFB58B34FEA9719404602F0DBFE55F8FF
:10F9F00020701FB1B9F1030F03D00FE0B9F1030F6D
:10FA000030D108A84FEAD80208F00703815C4FF014
:10FA1000010C0CFA03FC41EA0C0181544FF0A041A7
:10FA200001EB8800D0F8000706A9C0F3014A404660
:10FA300003F062FB18B1BAF1020F03D012E0BAF181
:10FA4000030F0FD1B9F1030F08D1BAF1020F1BD088
:10FA50000221404604F046FB761CF6B217B1494637
:10FA60004046B847641C042CAED3002E0ED06A4624
:10FA70000121002004F064FB06990098884205D01B
:10FA80000690089809909DE70321E2E70CB0BDE8D5
:10FA9000F0870000006000404C30002000F01F02A2
:10FAA000012191404009800000F1E020C0F880125F
:10FAB000704700F01F02012191404009800000F1D1
:10FAC000E020C0F88011704700F01F020121914032
:10FAD0004009800000F1E020C0F80011704700F0FC
:10FAE0001F02012191404009800000F1E020C0F890
:10FAF0000011704700F01F02012191404009800071
:10FB000000F1E020C0F8001270474907090E0028F4
:10FB100006DA00F00F0000F1E02080F8141D7047B5
:10FB200000F1E02080F80014704700002DE9F0415A
:10FB30004FF48077384603F0A9FB0124104EA50747
:10FB400048B1384603F0A9FB0120C5F808037470DA
:10FB5000002002F02FFE4FF48277384603F096FB28
:10FB600000280BD0384603F098FB0220C5F80803A4
:10FB7000B470BDE8F041012002F01CBEBDE8F08188
:10FB80003830002007480021C0F84011C0F8441167
:10FB9000C0F84811C0F84C11C0F80011C0F80411A9
:10FBA00005F016BA001001402DE9FE434FF48278AB
:10FBB000404604F051FB4C4F00254C4C012600B34D
:10FBC000404604F051FB94F82E0010B194F82F1029
:10FBD000D1B18DF80050616801912189ADF808100C
:10FBE000E26832B1218B618362602181E56010B1EE
:10FBF00002E0257400E03E6021686846884784F88A
:10FC00002F5094F82E0060B34FF48077384604F0FC
:10FC100023FB30B3384604F027FB628B94F82D1099
:10FC20008A420AD9A2EB010080B260832289A2EB4A
:10FC30000000626802EB400005E007D1E06828B1EF
:10FC400084F82F60658304F0C1FA04E08A4202D18F
:10FC500084F82F606583404604F006FB2248001DAF
:10FC600006604FF48877384604F0F6FA48B1384613
:10FC700004F0FAFA257402208DF800002168684625
:10FC800088474FF48A77384604F0E6FA28B13846B8
:10FC900004F0EAFA2574BDE8FE834FF000484FF403
:10FCA0008C7967691DE000BFB7FA87F028FA00F188
:10FCB00009EB80058F43284604F0CEFA88B1284628
:10FCC00004F0D2FAA5F58C75E8088DF8040045F328
:10FCD0008000401C8DF800608DF8050021686846A2
:10FCE0008847002FE0D1D6E700700040D0300020D8
:10FCF0000149024802F082BF00310020003000407C
:10FD000002494FF0402002F079BF00002831002066
:10FD100005F0ACB8074810B5406830B180470028FE
:10FD200007D0BDE8104001F0C5BABDE8104002F0B0
:10FD3000EDBE10BDC8260020F0B5B74AB7494FF058
:10FD400080541368D4F830010978D4F83421451C64
:10FD5000C1F3031106D0844601270025BCF1060F2C
:10FD600003D00AE003F0FF0CF6E7B4F82463DFF8F1
:10FD7000B0C2C6F30426CCF80060DEB2062E06D16F
:10FD8000032904D1DFF8A0C2A64ECCF87460461C4B
:10FD900004D08446BCF1060F03D00AE003F0FF0C48
:10FDA000F8E7D4F84462DFF884C2C6F34236CCF8F0
:10FDB0000060DEB2062E08D1032906D19C4ED6F88B
:10FDC00000C02CF0807CC6F800C0461C04D08446DD
:10FDD000BCF1060F03D00BE003F0FF0CF8E74FF087
:10FDE0008046C6F80C51C6F81051904E361F35604B
:10FDF000DEB2062E08D1032906D1DFF830C2032671
:10FE00000CF1640CCCF80060DEB2062E11D103298F
:10FE10000FD1DFF820C20526CCF80060854E783679
:10FE20003760844E083635600CF1040C3F26CCF860
:10FE30000060461C06D084464FEA0206BCF1060F5D
:10FE400004D081E003F0FF0C0E46F7E7032E7BD0D1
:10FE5000042E79D0784E3668DFF8E0C1CCF8006027
:10FE6000754E361D36680CF1040CCCF80060724EED
:10FE7000083636680CF1040CCCF800606E4E0C3677
:10FE800036680CF1040CCCF800606B4E1036366806
:10FE90000CF1040CCCF80060674E143636680CF197
:10FEA000040CCCF80060644E18363668DFF88CC15C
:10FEB0000CF1200CCCF800605F4E1C3636680CF15B
:10FEC000040CCCF800605C4E203636680CF1040C53
:10FED000CCF80060584E243636680CF1040CCCF88F
:10FEE0000060554E283636680CF1040CCCF80060E2
:10FEF000514E2C3636680CF1040CCCF800604E4E96
:10FF000030363668DFF834C10CF1400CCCF80060B4
:10FF1000494E343636680CF1040CCCF80060464E7D
:10FF2000383636680CF1040CCCF80060424E3C3692
:10FF300036680CF1040CCCF800603F4E4036366851
:10FF40000CF1040CCCF80060461C05D04FEA000C04
:10FF5000BCF1060F03D008E003F0FF0CF8E7D4F87B
:10FF60005842374E04F04F043460441C03D003461B
:10FF7000062B02D008E0DBB2FAE732490B68DB0758
:10FF800002D06FF001030B6006280AD1032A08D0C3
:10FF9000042A06D0052A04D02B48016841F4806168
:10FFA000016023487438016841F470010160BFF3B7
:10FFB0004F8FBFF36F8F4FF01021D1F80002002850
:10FFC00003DBD1F80402002822DA204A1760204817
:10FFD0000368002BFCD01523C1F800320468002C04
:10FFE000FCD0C1F8043201680029FCD0156001681A
:10FFF0000029FCD0BFF34F8F0D48F0380168154A37
:020000040002F8
:1000000001F4E06111430160BFF34F8F00BFFDE7D2
:10001000124911480860F0BDE00F00F0E80F00F051
:10002000403501400DF0ADBA00C007403C0500402E
:10003000FCED00E0105600400404001020C5004014
:10004000E40E0040000400403C17004004E501407D
:1000500000E401400400FA050090D003DC260020F3
:100060002DE9F84306270F4C00254FF4A0784FF4F4
:100070008036A94608EB850006FA05F122585AB1E8
:10008000D4F804230A4207D044F800902158064AC5
:1000900000915168126890476D1CEDB2BD42E9D3E2
:1000A000BDE8F88300A00140C43000200448017F6F
:1000B00004480029024901D005F0D7BA05F046BA34
:1000C000A43000200020004003B4019841000098B3
:1000D00050EAC12018BF04204A0D18BF40F00100AB
:1000E00040F2FF72B2EB515F08BF40F002000128FE
:1000F00008BF052002B070472DE9F04D2DED040B2F
:100100002DED0E8B96B0DDE92550279CDDF890A0F3
:1001100025F0004624F00048BAF1000F14BF012179
:10012000002101EB4502FC4953184A1093422AD39F
:10013000002814BF0123002303EB44030B44F749B9
:100140008B4220D358EA00019FEDF59B76D0DFF873
:10015000D8B35D4503D1BAF1000F05D188E0BAF1FB
:10016000000F08BF002100D0012101EB450111F56E
:10017000001F08D8002814BF0121002101EB440111
:1001800011F5001F0BD99DED261B9DED240B16B01C
:10019000BDEC0E8B04B0BDE8F04D00F069BE002749
:1001A000002DBCBFE149884521DAE1498845A8BF57
:1001B00002271CDAC3451ADCDE4901EB2851142959
:1001C00008DDC1F1340220FA02F101FA02F28242A2
:1001D0000DD108E058B9C1F1140228FA02F101FA70
:1001E00002F2424503D101F00101C1F1020756EAD2
:1001F0000A0124D1002C22DA002D18BF022F01D0D1
:10020000012F0AD0022000F091FE16B0BDEC0E8B3B
:1002100004B0BDE8F04D00F013BE022000F086FEF1
:1002200000F00EFE51EC100B81F0004141EC100B80
:1002300016B0BDEC0E8B04B0BDE8F08D18E09FED5C
:10024000BEAB9FEDBF8B002871D1B848804522D14D
:1002500005F1804010F5801008BFBAF1000F07D0FB
:10026000B3450ADC002CA8BF9DED260BE0DA0DE0BB
:10027000B0EE490AF0EE690ADAE7002C06DA9DEDE5
:10028000260B51EC100B81F000416FE0AE48784432
:1002900090ED000BCCE7D8454DD1002C48DA2EB1BB
:1002A00086423AD1BAF1000F42D126E0BAF1000FEE
:1002B00013D0022000F03AFE00F0F6FD8DED020BA7
:1002C0009DED240B8DED000B10EE900A039961F368
:1002D0001E0003909DED020BAAE78DED02AB9DED94
:1002E000240B1AEE901A10EE900A8DED000B61F3BC
:1002F0001E0003909DED020B9AE78DED028B9DEDA4
:10030000240B18EE901A10EE900A8DED000B61F39D
:100310001E0003909DED020B8AE709DA9DED240B88
:1003200051EC190B53EC102BFFF7E9F91EE020E01C
:100330009DED240B7CE786421BDAB4F1804F0DD093
:10034000A4F10050B0F1FF5013D1002D11DB9DED51
:10035000240B51EC100B04F051FD07E09DED240B34
:1003600053EC102B51EC100B00F0C2BC41EC100B05
:100370005EE79DED240B51EC100B02F049FBBAF146
:10038000000FCDE90E0142D19FED710B46B3A6F1EE
:10039000E040B0F17F600CD05E4538D1002D00DA2E
:1003A000A7B3022F0CBF01204FF0FF30FFF70DF86D
:1003B000DCE7002D01DD002C0DDA002D01DD002C25
:1003C0001FDB002D16DA002C14DB012F08BF9FED78
:1003D000620B3FF42DAFB0EE4A0AF0EE6A0A27E74F
:1003E000022F18BF002D0CD0012F0AD1002DFFF6CF
:1003F0001FAF06E0002DB8BF002C08DA012F3FF434
:1004000017AFB0EE480AF0EE680A11E71BE00120D2
:1004100000EBE57050EA070115D0791EB0EE498A6D
:10042000F0EE698A084308BF9FED4D8B4E480025CA
:10043000804570DD4D494E48884514DDB0420DDBE6
:10044000002C19DB2FE0012000F070FD16B0BDEC90
:100450000E8B04B0BDE8F04D00F016BDB34502DCD4
:10046000002C09DC1FE0864202DA002C1BDA03E0D4
:100470005E452BDD002C16DD022000F057FD00F05C
:1004800013FD8DED020B53EC1A2B51EC180BFEF7FC
:100490002AFFCDE900010399019861F31E00039042
:1004A0009DED020BC4E6022000F040FD00F00CFDC3
:1004B00010EE901A18EE900A8DED020B8DED008B68
:1004C00061F31E0003909DED020BB1E69DED0E0B56
:1004D00053EC192B51EC100BFFF70BF99FED260B8A
:1004E000CDE9080153EC102B9DED080B51EC100BDE
:1004F000FEF7F9FE9FED221B53EC112BFFF7FCF8E2
:100500009DED081B53EC112BFEF7EDFE9FED1E1B1E
:1005100053EC112B3CE08CE0FFFF1F00FFFF0F00AE
:10052000000000000000F03F0000F03F0000F07FFE
:100530000000404301FCFFFF000000000000F07FCE
:100540000000000000000000CE5700000000000086
:100550000000000000000080000000000000F0FF2C
:10056000000000000000F0BF0000E0410000F04388
:10057000FFFFEF3F00000000000000000000D03F40
:10058000555555555555D53F000000000000E03F3A
:10059000FFF7B2F89DED080B41EC1A0B53EC102B52
:1005A00051EC100BFEF79FFE53EC1A2BFEF79BFE4F
:1005B00041EC1A0B9FEDFE0B53EC102B9DED080B3D
:1005C00051EC100BFEF78FFE41EC1B0B9FEDFA0B6D
:1005D00051EC1A0B53EC102BFEF785FE41EC1A0B75
:1005E0009FEDF70B53EC102B9DED080B51EC100B0E
:1005F000FEF779FE53EC1A2BFFF77BF841EC1A0B50
:1006000051EC1B0B53EC1A2BFEF7D2FF0690CDE9F1
:1006100006519DED060B53EC1B2B51EC100BFFF715
:1006200068F853EC1A2BFFF767F841EC100B00F059
:10063000A1B90020B6F5801F0EDA9FEDE30B53EC55
:10064000102B9DED0E0B51EC100BFEF74CFECDE97F
:100650000E016FF034000E4600EB2650A0F2FF377B
:10066000C6F31300DA4940F07F6646F040568842F0
:10067000D8BF002408DDD7498142C8BF012403DC6C
:100680000024A6F580167F1CD348784400EBC400F4
:100690000F9690ED00CB9DED0E0B53EC1C2B51EC07
:1006A000100BFFF726F89DED0E0B41EC1B0B53ECE6
:1006B0001C2B51EC100BFEF77BFF41EC100B51ECA7
:1006C000190B53EC102BFFF71AF841EC1D0B51ECF2
:1006D0001B0B53EC1D2BFEF706FE41EC1A0BBF481B
:1006E0008DED10AB7844109590ED000B4FF000505D
:1006F00040EA660000EB84408DED080B00F5002019
:1007000009909DED080B53EC1C2B51EC100BFEF7E0
:10071000F0FF9DED0E1B53EC112BFEF7EDFF41ECAE
:10072000100B53EC102B9DED100B51EC100BFEF742
:10073000DAFD9DED080B41EC1C0B53EC102B9DEDED
:10074000100B51EC100BFEF7CEFD53EC1B2BFEF7FC
:10075000D3FF53EC1C2BFEF7CCFF53EC1D2BFEF705
:10076000C2FD41EC1C0B53EC1A2B51EC1A0BFEF79B
:10077000BAFD41EC1B0B9A480621B0EE4B0AF0EE95
:100780006B0A784400F0E0FAB0EE401AF0EE601A1E
:10079000B0EE41DAF0EE61DA53EC1B2B51EC1B0B9F
:1007A000FEF7A1FD53EC1D2BFEF79DFD9DED100BFB
:1007B00041EC1B0B53EC1A2B51EC100BFEF7F8FE1F
:1007C00053EC1C2BFEF78FFD53EC1B2BFEF7F0FEBA
:1007D0009DED100B41EC1B0B53EC102B51EC100B4F
:1007E000FEF781FD41EC1D0B9FED7FEB53EC1E2BC3
:1007F000FEF7DEFE53EC1B2BFEF7DAFE0890CDE988
:1008000008519DED080B53EC1E2B51EC100BFEF71D
:1008100070FF53EC1D2BFEF76CFF53EC1B2BFEF708
:100820006BFF9DED080B41EC1D0B53EC102B9DED68
:10083000100B51EC100BFEF756FD41EC1B0B53EC6B
:100840001A2B51EC1D0BFEF74EFD9DED080B41ECF4
:100850001A0B53EC102B51EC1C0BFEF744FD53EC20
:100860001A2BFEF7A5FE41EC1A0B51EC1B0B53ECB7
:100870001A2BFEF79DFE0C90CDE90C519DED0C0B53
:1008800053EC1B2B51EC100BFEF733FF53EC1A2BE0
:10089000FEF732FF41EC1B0B9FED550B53EC102B79
:1008A0009DED0C0B51EC100BFEF71DFD41EC1A0BEE
:1008B0009FED510B51EC1B0B53EC102BFEF713FD6E
:1008C00041EC1B0B9FED4E0B53EC102B9DED0C0BD5
:1008D00051EC100BFEF707FD53EC1B2BFEF768FEE7
:1008E00041EC100B4848784400EBC40090ED001B2D
:1008F00051EC100B53EC112BFEF75AFE41EC1B0B85
:100900003846FEF762FDCDE9080153EC1B2B51EC94
:100910001A0BFEF74DFE41EC100B3C48784400EBFF
:10092000C40090ED00CB51EC100B53EC1C2BFEF7E8
:100930003FFE9DED081B53EC112BFEF739FE069090
:10094000CDE906519DED080B53EC102B9DED060BE8
:1009500051EC100BFEF7CDFE53EC1C2BFEF7C9FE3D
:1009600053EC1A2BFEF7C5FE53EC1B2BFEF7C4FE0F
:1009700041EC100B9DED261B53EC102B8DED001B55
:1009800000959DED260B51EC100BFEF7ACFC9DED98
:10099000000B41EC1A0B53EC102B9DED260B51EC88
:1009A000100BFEF7A6FE9DED061B53EC112B2FE05E
:1009B000000000604715F73FFE822B654715F73FA3
:1009C00044DF5DF80BAE543E0000000000004043E1
:1009D0008E9803007AB60B004A530000785300004B
:1009E00082520000000000000000000000000840EB
:1009F000000000E009C7EE3FFD033ADC09C7EE3F07
:100A0000F5015B14E02F3EBE0E510000C8500000FF
:100A1000FEF769FC53EC1A2BFEF7CAFD9DED060BA1
:100A200041EC1A0B53EC102B9DED000B51EC100B0D
:100A3000FEF759FCCDE90C019DED0C0B51EC1A0BA6
:100A400053EC102BFEF7B4FDCDE902010C46AA4988
:100A50008C422FDB611A084318D19DED0C0B53EC2F
:100A6000102B9DED020B51EC100BFEF742FE41ECFA
:100A70001B0B9FEDA30B51EC1A0B53EC102BFEF745
:100A800097FD53EC1B2BFEF7C1FE2DD2022000F088
:100A90004DFA00F009FA10EE901A18EE900A8DED5A
:100AA000020B8DED008B61F31E0003909DED020B98
:100AB000FFF7BEBB944A24F00041914214D39349FE
:100AC000214408437FF4EFAC9DED0C0B53EC102B4D
:100AD0009DED020B51EC100BFEF70BFE53EC1A2BA5
:100AE000FEF794FE7FF6DFAC24F000408849894A87
:100AF000002601EB205182422BDA481C4FF4801172
:100B000021FA00F02044844AC0F30A517A44A1F249
:100B1000FF3192ED000B814A8DED080BCA4020EAAF
:100B20000202C0F3130040F48010C1F1140120FA56
:100B300001F60992002CB8BF76429DED080B53ECEC
:100B4000102B9DED0C0B51EC100BFEF7D2FDCDE9F7
:100B50000C019DED0C0B51EC1A0B53EC102BFEF716
:100B600027FD9FED6F0B0890CDE9085153EC102B3A
:100B70009DED080B51EC100BFEF7B5FB41EC1B0B88
:100B80009FED690B53EC102B9DED080B51EC100BF6
:100B9000FEF7A9FB9DED0C0B41EC1C0B53EC102B4D
:100BA0009DED080B51EC100BFEF7A3FD53EC1A2B37
:100BB000FEF7A2FD9FED5E1B53EC112BFEF793FB9E
:100BC00053EC1C2BFEF7F4FC41EC1A0B51EC1B0B05
:100BD00053EC1A2BFEF7ECFCCDE902019DED020B64
:100BE00053EC1B2B51EC100BFEF783FD53EC1A2B2F
:100BF000FEF782FD9DED020B41EC1A0B53EC102B1E
:100C000051EC100BFEF76FFBCDE908014A489DED52
:100C1000080B0521784400F097F89DED081B51EC76
:100C2000100B53EC112BFEF75EFB9DED021B53ECFA
:100C3000112BFEF761FDCDE906019DED020B53EC92
:100C40001A2B51EC100BFEF74EFB53EC1A2BFEF750
:100C5000AFFC9FED3B0B41EC1A0B53EC102B9DEDC1
:100C6000060B51EC100BFEF744FD9DED060B41EC1D
:100C70001B0B53EC102B9DED020B51EC100BFEF7F0
:100C800032FB53EC1B2BFEF73AFD53EC1A2BFEF70D
:100C900030FD9DED021B53EC112BFEF72AFD53ECAA
:100CA000192BFEF729FDCDE9020101EB06500115D4
:100CB0000029C8BF039015DC9DED020B324651ECB4
:100CC000100BFEF78BFDFFF7FFF9042808BF00F0BB
:100CD000FBF832469DED020B51EC100BFEF77EFD4A
:100CE000CDE902019DED020B51EC180B53EC102BDA
:100CF000FEF7F9FAFFF73ABB000090400000000051
:100D0000FE822B654715973C00CC904000346F3F26
:100D100001FCFFFF0000E03F504F0000FFFF0F000D
:100D200000000000432EE63F396CA80C615C20BE39
:100D3000EF39FAFE422EE63F204E00000000000090
:100D4000000000000000004070B504462DED028B4D
:100D50004D1E00EBC500B0EE408AF0EE608A90EDCB
:100D6000000B35F0060017D053EC182B51EC100B8C
:100D7000FEF7B9FA41EC100B6D1E04EBC50090EDC7
:100D8000001B51EC100B53EC112BFEF711FC41EC46
:100D9000100B35F00600E7D1022D36D0042D1CD003
:100DA000062D1CBFBDEC028B70BD53EC182B51EC13
:100DB000100BFEF798FA94ED0A1B53EC112BFEF77B
:100DC000F7FB53EC182BFEF78EFA94ED081B53EC4F
:100DD000112BFEF7EDFB41EC100B53EC182B51ECF3
:100DE000100BFEF780FA94ED061B53EC112BFEF767
:100DF000DFFB53EC182BFEF776FA94ED040B53EC63
:100E0000102BFEF7D5FB41EC100B53EC182B51ECDB
:100E1000100BFEF768FA94ED021B53EC112BFEF752
:100E2000C7FB53EC182BFEF75EFA94ED001B53EC56
:100E3000112BFEF7BDFBBDEC028B41EC100B70BD1E
:100E40009FED070B10B553EC102B9FED070B51ECEA
:100E5000100BFEF754FC41EC100B10BD000000001D
:100E60000000000000000000000000000000F03F53
:100E700010B553EC112B51EC100BFEF799FB41EC24
:100E8000100B10BD000000009FED050B10B553ECDA
:100E9000102B51EC100BFEF732FC41EC100B10BD87
:100EA00000000000000000009FED050B10B553ECA2
:100EB000102B51EC100BFEF716FA41EC100B10BD85
:100EC00000000000000000709FED050B10B553EC12
:100ED000102B51EC100BFEF706FA41EC100B10BD75
:100EE000000000000000001002E008C8121F08C146
:100EF000002AFAD170477047002001E001C1121F9B
:100F0000002AFBD1704700000121202803DA81402C
:100F10000548014003E0402802DA2038814009B149
:100F20000120704700207047FC06FFBD01490860A2
:100F300070470000E02600202DE9FC4700251788B7
:100F40000646158090F82D001446894630B13A4681
:100F50002146484600F08EFD050009D1B0784FF0DB
:100F60000C0A18B32088C846001DB84202D9504662
:100F7000BDE8FC87684679DF0028F9D12088032185
:100F800008F8001020881921401C80B2208008F841
:100F900000102088401C80B2208000EB0801BDF8C2
:100FA000000004F0DAFB218808442080F078022257
:100FB000C8B1218896F9033001F1030C4846BC45BD
:100FC000D5D8425421884FF0010C491C89B22180A8
:100FD00000F801C02188491C89B2218009F801303C
:100FE0002088401C20807068B8B1218890F90030BA
:100FF00001F1030C4846BC45B9D8425421880A2265
:10100000491C89B2218042542188491C89B221801F
:1010100009F801302088401C2080308950B1CDE98A
:1010200000474B460622022106F1080004F0E2FBCD
:1010300005009DD1308A50B1CDE900474B460722CB
:10104000032106F1100004F0D5FB050090D1308B90
:1010500050B1CDE900474B461522142106F1180086
:1010600004F0C8FB050083D1306A30B13B4622460C
:10107000494601F009FC0500DBD1706A30B13B46FE
:101080002246494601F09EFF0500D2D196F82C0079
:1010900038B13B4622464946304603F04BFD050039
:1010A000C7D1307838B13B4622464946304601F038
:1010B000D5FF0500BDD128465AE70000134A00219C
:1010C000535C0BB1012203E0491C0629F8D300222E
:1010D0000F49012806D0022809D003280CD0042883
:1010E00012D10DE0487810B10AB10120704788781C
:1010F00010B10AB102207047C87808B103207047C8
:10110000087908B104207047002070476D26002040
:10111000482F002010B501220221002001F0B0F973
:1011200008B1072810D107220221012001F0A8F9F7
:1011300008B1072808D100210A22084601F0A0F9C9
:1011400008B1072800D1002010BD000030B5A7B0BD
:101150003C2101A8FEF7BCF802208DF80400002411
:101160008DF8064005208DF807003C2110A8FEF7F9
:10117000AFF80F4801251590ADF8505020211FA859
:10118000FEF7A6F8402023908DF87F50B4202490DD
:10119000084B1FAA10A9009401A800F09FFA08B1FB
:1011A00000F088F8012000F093FA27B030BD00006D
:1011B00010260020CD420200022001F025B80000D8
:1011C00070B50024064D06E06868012110F834006F
:1011D00002F0EEF9641C28788442F5D3002070BD3B
:1011E00090260020F8B515460C460646052A01D281
:1011F0000720F8BD02F0C2FA18B902F091FA0028EF
:10120000F7D1104900204E600C70C1E902500E4D1C
:1012100008610DE006EBC4006968009181788DF8E3
:1012200001100078094A694602F014FA0028E0D15A
:10123000641EE4B2EED2BDE8F840054A002102483F
:1012400000F06CB890260020B0590200B52A0200C8
:101250007129020010B50AA1012002F0A3FF0CA120
:10126000032002F09FFFBFF34F8F10480168104A20
:1012700001F4E06111430160BFF34F8F00BFFDE750
:101280003A4552524F523A466174616C0D0A000061
:101290003A494E464F3A486974207765616B206839
:1012A000616E646C65720D0A000000000CED00E0D8
:1012B0000400FA050EB500210091CDE901106A463F
:1012C00044F20100FFF7C6FF0EBD10B58268C36887
:1012D000934203D001F0A8FB002010BD052010BDF3
:1012E00029B112B1531E134203D0092070470E20BA
:1012F00070470160838000218160C16008467047AB
:1013000010B58268C3689A1A83889A4203D801F09C
:1013100095FB002010BD042010BD0000084B9B78F9
:1013200023B12AB120B10068037C1BB108207047AB
:1013300007207047002303744174426118467047C8
:101340007031002070B503F0E7F8104800240B213D
:10135000047044700E4D817014206C602C706C70A1
:10136000FEF79CFB07211420FEF7CFFB1420FEF7AD
:10137000ABFB0848046007211120FEF7C6FB0548B7
:10138000001F0068A860002070BD000070310020C0
:10139000A4260020081501402DE9FC47DFF87890CD
:1013A00099F8023073B368B3052902D20720BDE86B
:1013B000FC87436933B3437C012B25D000270446C7
:1013C0000025884616468DF80050684600F0ACF8B7
:1013D00001A804F0F7F9C8B1012101700F49446078
:1013E0000968C0E90218C0E904769DF8040089F88C
:1013F00001009DF8000000F0BBF81420FEF77AFB16
:101400002846D4E70820D2E70F46D8E704259DF800
:10141000000000F0ADF8F3E7703100200415014042
:101420000649897839B130B1416921B1002101748F
:10143000022103F0A9BD0820704700007031002090
:1014400070B50A4E01460A48B578FFF73EFF0446DC
:101450004DB10020B070711C0122C81D02F03AFC91
:1014600008B1FFF727FF204670BD0000B826002016
:101470007C320020F0B5284E89B01F460D0004468E
:1014800072603BD0A888296882B22448FFF728FF01
:10149000002834D1A889A96882B220481030FFF70B
:1014A0001FFF00282BD120221D496846FDF7F7FEBB
:1014B00060690690207C00B101208DF814008DF841
:1014C0001C70607C00B10E208DF81500E068029061
:1014D000A068039020680190606800900E48114A4F
:1014E0006946083002F0C2FB002808D1B0702068BD
:1014F000401C04D09DF81D0018B106E0072009B07B
:10150000F0BD0548083002F03DFC03490122491CAA
:10151000C81D02F0DFFBF2E7B82600207C32002075
:10152000B8590200AD54020030B5EFF3108172B625
:101530000D4A9468012324B10370002900D162B6DA
:1015400030BD93604FF0E023D3F88051074C254025
:101550001560C3F88041D3F8844154605A17C3F82A
:10156000842100220270E8E79C320020FC06FFBDC7
:101570000B498A68002A11D000280FD1EFF31080A0
:1015800072B60B684FF0E022C2F800314B68C2F827
:10159000043100228A60002800D162B67047000042
:1015A0009C3200202DE9F041064608680C46411C9B
:1015B0004FF0A0474FF0010506D005FA00F1C7F83B
:1015C0000815206802F073FD6068411C02D00021FC
:1015D00002F064FD3079204901EB4010A169007FE1
:1015E00000283068C0F8241525D0607D227D316840
:1015F0001043C1F86C05D4E900123068C0F80C152E
:10160000C0F8142524E0A068411C02D0002102F09B
:1016100045FDE068411C05D08540C7F80855E068E5
:1016200002F045FDD4E902123068C0F80825C0F880
:101630001015BDE8F081607D217D32680843C2F855
:101640006C05D4E900123068C0F81425C0F80C15F8
:10165000207D0128D7D0ECE7A4300020400C01D039
:101660000020704701207047F0B50C4693B01F2151
:101670000726ADF80010ADF80410002750B1C1786E
:1016800049070DD56A4602A9FFF756FC002808D184
:1016900002AD02E00025ADF800706CB1E07810B149
:1016A000304613B0F0BD01AA0AA92046FFF744FC5A
:1016B0000028F6D10AAA02E00022ADF80470BDF8B5
:1016C0000400C3B2BDF80000C1B2284672DFE8E7EB
:1016D0000149087170470000542600202DE9F047A9
:1016E0001F46DDF8208013468946040043D0EBB343
:1016F000404D012000262870EE70202219463E48F9
:10170000FDF7CDFD2E71C5E904784FF6FF706881B5
:10171000AE613948AE83AE773C212030FDF7D8FD6D
:101720003548217820300170A1788170E178C1704E
:10173000617841703049D4E90423C1E90C23D4E92C
:101740000223C1E90A23D4E90623C1E90E23616A11
:10175000E1B100F13C0100F1480241628A60636A34
:101760001B880B80616A436A898800E003E09980E6
:101770000021436A07E00E20BDE8F087656AAD6886
:101780006D5C5554491C9D888D42F7D8A16AD9B12A
:10179000194A9432A2F10C018A608162A36A9B8883
:1017A0008B80A16A836A098819800021836A04E01A
:1017B000A56AAD686D5C5554491C9D888D42F7D86B
:1017C00094F82C1080F82C10216A49B109490C3189
:1017D0000162226A52884A80216A026A098811805D
:1017E000616801B141604946BDE8F04702482030D8
:1017F000FFF73ABF54260020482F002010B501887B
:10180000144C102918D011291CD01B2919D1007A89
:10181000002816D1E0780521401CB0FBF1F201FB55
:10182000120000BF00F036F800280AD061690029D4
:1018300007D0BDE810400847C17B012901D180884D
:10184000608110BD0021A171808861898842F8D132
:101850000120E7E75426002010B574DF0B4C01206F
:101860000B49A071002020720620C8700021084892
:10187000FFF7FAFE002807D1E07800F00BF810B16E
:10188000616901B18847002010BD00005426002086
:10189000682F00202DE9F0413D4C804686B020782D
:1018A00048B184F8038004A801F0D2F80498012616
:1018B00028B1667068E0082006B0BDE8F081002518
:1018C000A561344FA583A577787810B1E078012819
:1018D00006D0B87858B1E078012801D0022806D1A6
:1018E000216919B166710820884700E0657140469A
:1018F000FFF7E4FBE070216939B1032801D0042827
:1019000003D1387808B1A07990B1E57100950295BE
:10191000019503958DF800508DF808501C48E1782A
:101920001830052925D2DFE801F03108111D21000A
:101930002572E67107208847E8E7A67001908DF8C8
:101940000060ADF80C50ADF80A5014E00221A1700F
:1019500001908DF80060B889ADF80C003889ADF8B9
:101960000A0008E0684603F029F902E0684603F03F
:1019700049F9E07820B12179684673DF00289BD1CE
:10198000216909B1A0788847002095E7A570F7E79D
:1019900054260020482F002070B5054601461C2221
:1019A0000F48FDF77CFC0F4C00262670286830B1EC
:1019B000016861604068A060201D7ADF02E009488C
:1019C000001D7BDF00280AD14FF6FF706080667033
:1019D000BDE87040044A00210448FFF79FBC70BD79
:1019E0001C30002074260020655702007059020048
:1019F00070B51E4C068800231B49E289102E15D0B5
:101A00001B4D112E1CD0122E29D0502E17D130F87C
:101A1000061F914213D14189022910D10C3000F0E8
:101A200066F988B1BDE8704000F074BF84884C80CE
:101A30000469CC60406908614B70002AF2D070BD27
:101A40004FF6FF7048804B702868FFF7E9FC0028CC
:101A5000F5D0A1690029F2D0BDE87040084782683E
:101A6000CA60C0680861DDE7742600201C300020D1
:101A7000705902007CB5054608880C460930904232
:101A800001D90C207CBD68466DDF0028FAD1218881
:101A90000820685420881B21401C80B220802954D3
:101AA0002088401C80B220802844DDF801100160AD
:101AB000BDF8051081802088801D80B220809DF8AF
:101AC0000010490800D0012129542088401C2080A2
:101AD00000207CBD10B50446FFF78AFF2146094867
:101AE00001F034FB074821461C3800F0ABF82046D3
:101AF00002F0FEFB2046FFF781FE2046BDE81040C5
:101B000000F00ABC742A002010B588B000F0F4F888
:101B10009DF808002BA120F00F00401C20F0F000E1
:101B200010308DF808000B2202A87CDF08B1FFF707
:101B3000C1FB002400940620ADF800001820019499
:101B4000ADF80200ADF804404FF4C870ADF80600DF
:101B500068467ADF08B1FFF7ADFB00F093FF1C4841
:101B6000009069461B4800F03BF808B1FFF7A2FB64
:101B7000FFF7ECFA1C216846FDF7AAFB4FF4203072
:101B8000CDE900404FF47020029003208DF80C0046
:101B90001148059011480690ADF80E408DF81040A0
:101BA0006846FFF7F9FE08B1FFF784FB0320FFF753
:101BB00071FE002804D008B0BDE81040FFF77ABBE2
:101BC00008B010BD4E6F726469635F554152540096
:101BD000CB420200582A0020E143020011290200F2
:101BE00030B5174B0D4604000FCB85B08DE80F00C4
:101BF00023D015B34FF6FF70A0822868A0610020A3
:101C0000A0752146684662DF002814D120788DF83F
:101C100012000120ADF81000A21C04A9A0DF0028CA
:101C200009D12946204602F0AEFC002803D12946FE
:101C3000204603F08DFB05B030BD0E20FBE7000011
:101C40008C59020010B5002822D0002920D00A8823
:101C5000102A18D0112A18D0502A19D104468A1DEA
:101C6000C88823891231984202D15389022B10D09F
:101C7000A38998420CD1A369002B09D05289204630
:101C8000BDE810401847898801E04FF6FF71818256
:101C900010BD084600F02BF800B10120A07510BD62
:101CA00007B584B068B1828AA2F57F43FF3B0AD0B2
:101CB000827D42B1BDF818209B2A06D9072007B0C3
:101CC00000BD0E20FBE70820F9E7002200920192F8
:101CD000029203928288039106A90291ADF8002036
:101CE00001218DF80210808A6946A6DFE7E70078B7
:101CF00000F001007047000030B52B4885B000238C
:101D000040680490D822294904A803F03FF808B19C
:101D1000FFF7D0FA00246846009402F0A9FF08B14A
:101D2000FFF7C8FA012501948DF804508DF805409D
:101D3000029403948DF8064001A94020009A69DFBF
:101D400008B1FFF7B7FA01948DF804509E20ADF862
:101D500006000294039401A92320009A69DF08B1C8
:101D6000FFF7A8FA019402944FF4A0708DF8045084
:101D7000ADF8080003948DF8065001A92020009AC0
:101D800069DF08B1FFF796FA684602F085FF08B1EF
:101D9000FFF790FA064802F075FF002801D0FFF720
:101DA00089FA05B030BD0000C4580200E4260020C6
:101DB000D51A020010B5044600F0F5F9F92060715B
:101DC0000020A07102212246084600F08BF920462F
:101DD00000F05CF910B16079F82801D0002010BD46
:101DE000012010BD10B5044600F050F950B1E07864
:101DF000032804D002280BD0052805D002E0607922
:101E0000FB2801D0002010BD204600F05BF802E066
:101E1000204600F04DF8012010BD0A46014605207D
:101E200000F0A4B910B50C467C2800D97C2022789B
:101E300004F19601002A00F1040206D05FF04A0086
:101E400001F020FB18B1012010BD4B20F8E7002164
:101E500008462218802992F89A2003D26318491C58
:101E60005A7189B2401C80B27C28F2D3EBE70000A3
:101E70000249B0F98600897800F0E0B834260020E5
:101E80000249B0F98800897800F0D8B834260020DB
:101E90000249B0F98A00897800F0D0B834260020D1
:101EA0000249B0F98C00897800F0C8B834260020C7
:101EB0004179F12905D1C179072902D1817A80F8C8
:101EC00096117047F0B58279437AC47942EA036289
:101ED000037AB0F801101B0443EA04231A4321F4E7
:101EE0000041C0F89821091FC27809B2052A35D0EF
:101EF000067BC489038A428A4FF0000C491F06F012
:101F000003056746092901DDB0F814C00B2900DD7F
:101F1000C78A817A052938D0042940D0022947D0C0
:101F200003294ED0012955D0082953D0282951D052
:101F300029294FD0112956D0132957D01E2959D0FD
:101F4000142965D015296AD0162970D0F12904D139
:101F5000072E02D1C17B80F89611F0BD30F8051F25
:101F6000A0F881104188A0F883108188A0F885101E
:101F7000C188A0F887100189A0F8B7114189A0F89D
:101F8000B9118189A0F8BB11F0BDA0F8905020F8DC
:101F9000864F43808280A0F806C00781F0BDA0F87C
:101FA000AA51A0F8A441A0F8A631A0F8A821F0BD3C
:101FB000A0F8B251A0F8AC41A0F8AE31A0F8B02121
:101FC000F0BDA0F8BA51A0F8B441A0F8B631A0F81D
:101FD000B821F0BDA0F8A251A0F89C41A0F89E3114
:101FE000A0F8A021F0BDA0F8C221F0BD817B80F84F
:101FF000C411F0BDC17B80F8C51100214218D0F892
:10200000C831127C5A54491CC9B20929F6D3F0BD13
:10201000A0F8CC41A0F8CE31A0F8D021F0BDA0F8B6
:10202000D241A0F8D431A0F8D621F0BDFFE7A0F846
:10203000D841A0F8DA31A0F8DC21F6E710B500EEBF
:10204000100A2DED048B4842B8EEC08AFDF7BDF9A9
:1020500041EC110B9FED0B0BFEF74EF8B0EE409AE2
:10206000F0EE609A18EE100AFDF7C0F953EC192B48
:10207000FDF739F9FDF7CDF9BDEC048B00EE100A40
:1020800010BD0000000000000000004010B5044634
:10209000007804F192014FF0040230B15FF04A0081
:1020A00001F0F0F918B1002010BD4B20F8E794F8CA
:1020B000920094F8931094F8942094F895306070FE
:1020C00040EA0120A17020F40040E27000B22371C8
:1020D0000028E9D0001F80B22146FFF7A3FE0120AF
:1020E00010BD00002DE9F8430B1DDFB2154667F364
:1020F0000704002666F30F242B1860F3174493F8A7
:10210000DE01174A60F31F64401C83F8DE01C5F846
:102110001641304605E02B18401C5C7983F81A41C3
:10212000C0B28842F7D30F4C05F58B7990462878DA
:102130003B464A46009670B14A210B4801F072FDB9
:102140000028F4D14046217839B10028EFD026701C
:102150000120BDE8F8834B21EFE7401EF3D1E6E70D
:10216000A086010034260020245902004FF47A731F
:102170005943FD23537190710020D0711072507239
:1021800091720B0AD3720B0C1373090E5173907377
:10219000D073107450749074D074107550751121F0
:1021A0000220FFF79FBF70B50446012060712246F0
:1021B0000146FFF797FF4CF25035284601F076F8BC
:1021C0002046FFF763FF0028FAD1284601F06EF899
:1021D0002046FFF75BFF0028FAD170BD0149085C7B
:1021E00070470000405902000649095C4FF0A040CA
:1021F000D0F81005C84010F0010000D0012080F098
:10220000010070474059020007490B5C4FF0A041A4
:10221000D1F804250120984020EA0203C1F80835CE
:102220001040C1F80C0570473C5902000249085C97
:10223000012101F07ABF00003C5902000249085C0C
:10224000002101F072BF00003C5902000649095C00
:102250004FF0A040D0F80405C84010F0010000D0B5
:10226000012080F0010070473C5902007CB5002439
:10227000084E25460122305D009500231146019548
:1022800001F0D6FE641C042CF4D3BDE87C4000F0C1
:1022900003B800003C59020010B500242046FFF7A7
:1022A000C5FF641C042CF9D310BD10B500242046D2
:1022B000FFF7C4FF641C042CF9D310BD10B502460F
:1022C000064B4FF0FF3000215C5C944201D1084680
:1022D00010BD491C0429F7D310BD0000405902006D
:1022E00070B50C4E0C004FF0000530600BD0012093
:1022F00000F0A2F808B1022004E0002000F09CF8F1
:1023000000B10B202070706810B9FEF703FF05467E
:10231000284670BD4C26002010B51A4C0188606814
:1023200010290ED011292BD1401E606028D1FEF754
:10233000F1FE002824D02168002921D0BDE81040FA
:102340000847D0B900210122084600F099F808B1E9
:1023500007280FD107220221012000F091F808B1CF
:10236000072807D104220221002000F089F820B1BB
:10237000072802D0216801B188476068401C60606E
:1023800010BD00004C26002010B5002000F0CCF954
:1023900008B1062806D1012000F0C6F908B10628C8
:1023A00000D1002010BD00002DE9F0470D46814608
:1023B000FFF784FF0446042836D2DFF874801B48F8
:1023C0001C4EA8F10C0725B3012D0ED0022D2BD1E8
:1023D00004EB440030444578002D25D0B96800292D
:1023E00022D02846BDE8F047084704EB4401755C5D
:1023F0000E44717849B10E4A4FF40041093A8068A1
:10240000FEF7CAFF08B987F80390B17808F80410FE
:10241000E2E78068FFF704F804EB4401314418F860
:1024200004008D78A842D7D0BDE8F0874459020057
:10243000482600201C2F0020FFF7D6BE01460F487B
:1024400010B58088042907D007290ED00A2914D195
:10245000BDE8104002F0F8BB132176DF0BE0002846
:102460000BD0BDE81040FEF725BFA0F57F41FF3936
:1024700003D1FFF7F1F90828F1D110BDF8250020AC
:1024800070B50023042810D20D4D00EB4004012A42
:1024900002D101290CD00022094E00EB400030444B
:1024A00061B1012906D0022906D00723184670BD64
:1024B0000E30C2B22A55F9E74270F7E78270F5E7AD
:1024C0001C2F0020044A014600201279D20702D0B6
:1024D000084600F04DB870473C26002070B506460F
:1024E0001E480024C0E90161B00720D50025012263
:1024F00011462846FFF7C4FF6D1C0446042D02D286
:10250000002CF4D013E094B940F266620421144820
:10251000FEF768FE04000AD1FEF752FE040006D161
:102520000F48104A0021001FFEF7F8FE0446F0078E
:1025300001D0FFF79BFE74B909480B4A00210C3803
:10254000FEF7ECFE040006D10548084A01210838D0
:10255000FEF7E4FE0446204670BD00003C26002045
:102560005059020039270200C92D0200B91102009A
:102570002DE9F05F6A4C054600266078B34618B135
:1025800084F801B000F008FC664F4FF47A694FF40C
:10259000C87A4FF00108182D62D2DFE805F0AC0CC4
:1025A0000C31404D62676B746B74BE7D7D7D7D7DAB
:1025B000ACAFB2B5BEBE0020FFF748FE00284FF01A
:1025C000000008D0FFF732FE022D02D14FF4E16087
:1025D00008E0484606E0FFF731FE022D01D1C82091
:1025E00000E05046410CC0034FF4FA72801841F1EC
:1025F0000001257052000023FCF720FE01462AE06E
:102600000020FFF723FE00284FF0000004D0FFF762
:102610000DFE4FF44870E5E7FFF710FEDFE70020FE
:10262000FFF714FE00284FF0000002D0FFF7FEFD78
:10263000CFE7FFF703FED4E70020FFF707FE0028EF
:102640004FF0000002D0FFF7F1FD01E0FFF7F6FDCB
:10265000257041F69A1100223868FEF79DFE064665
:1026600046E00020FFF7D0FD257008E0002051E093
:1026700025703DE084F801800120FFF7C5FD0022B0
:1026800040F6CD41E8E784F801800120FFF7BCFD6A
:1026900000224FF48041DFE77868FEF7C1FE06466E
:1026A000D5F1110000D02EB10220FFF7BFFD84F854
:1026B00002B01DE0012816D980B2C8214843C117D5
:1026C000C90341EA5041C0034FF4FA72801841F146
:1026D000000152000023FCF7B1FD0146002278689A
:1026E000FEF75AFE06460220FFF7A8FD84F8028096
:1026F0003046BDE8F09F00F04FFBB9E700F04CFB1F
:10270000B4E700F049FB04E000F046FB0020FFF7CF
:1027100095FD0120FFF792FDAAE7FFF7C6FDA7E7A9
:102720003C2600204459020010B5FFF757FD032155
:1027300001F0C7FC002010BD00780221FFF734BE75
:1027400005494FF0FF32082841F8202002D3084401
:1027500080F84820704700004C300020F0B54FF062
:10276000FF3512B10023082601E008230C260C4C8B
:1027700005E000BF54F823707F1C04D05B1CB342FB
:10278000F8D32846F0BD26185DB286F8305044F8DC
:102790002310002AF5D1E11881F84800F1E7000084
:1027A0004C3000200249084490F930007047000086
:1027B0004C30002070B5084C050009D01034216859
:1027C000002907D008682060496828468847F6E74E
:1027D0000834F4E770BD0000383000202DE9F05FC8
:1027E00026484168F1B3DFF898B00E688146DBF8FF
:1027F000004087688078E11B21F07F45ED1CB0B96F
:10280000DFF880804FF48030C8F84403C8F8040330
:102810001120FDF743F91120FDF756F94FF0010A99
:10282000C8F800A02F2000F0CDFD89F802A0B54225
:1028300000D23546124BE8193C3320F07F40186037
:10284000DBF800105A46091B21F07F41001B20F0E5
:102850007F40C91C81420FD9106818602F2000F0FA
:10286000B1FD00E004E0BDE8F05F1120FDF742B9E2
:10287000BDE8F05F01F050BEBDE8F09FA426002047
:1028800004150140001001402DE9F041178806466B
:10289000B81D14460D46984202D90C20BDE8F081BF
:1028A0003188072206290AD34FF4486C4FF6FF738C
:1028B000614501D9994202D17088062801D210469B
:1028C000ECE7604501D99842F9D1994203D098428A
:1028D00001D08142F3D80520E85520881221401C00
:1028E00080B2208029542088401C80B22080411969
:1028F000308802F032FF2188084480B220804119DC
:10290000708802F02AFF2188084420800020C5E753
:10291000FEF7D0BCF8B5134800F02AFA114D002696
:10292000114C0C3D30B16169B9B101208DF8000046
:10293000684611E0287820B1616971B18DF80060B6
:10294000F6E7687858B1A168084800220068FEF7E9
:1029500023FD10B1A16901B188472E70F8BD6168EF
:10296000F2E70000802600201C3000207059020091
:102970002DE9F04100260125144C22E0606822690F
:1029800000EBC607387805FA00F1114217D08A43E8
:10299000226100F0BBFE02463878E36805FA00F1D8
:1029A000194002FA00F3994209D17978012901D03E
:1029B000012100E0002151407A6802B19047761C65
:1029C000F6B220788642D9D3BDE8F0819026002067
:1029D0000E4910B50A784C780023A24212D0521C3E
:1029E000D2B20A70022A00D10B70084A0B780C325E
:1029F00052F8232002608868104420F07F408860ED
:102A0000012010BD0360002010BD0000A42600209E
:102A100082B0CDE9000121F0004001909DED000B56
:102A200002B051EC100B7047826883881A4003682B
:102A30009A5C0A708168491C81607047C26883880B
:102A40001A4003689954C168491CC160704700006E
:102A500020B10349496E0160002070470320704790
:102A6000A832002006484A8883889A4207D10A88FB
:102A7000A2F52063773B02D18988C91EC1807047C7
:102A8000F825002010B50949094800F049FB08B1B4
:102A9000FEF710FC2C21064800F036FB002803D07E
:102AA000BDE81040FEF706BC10BD0000652A02001C
:102AB000742A00202DE9F041124E07460125BD4041
:102AC0003068FEF7ADFC00280DD10F4C206928427C
:102AD00007D1384600F01AFE0028E06805D02843E8
:102AE00004E0A8432061BDE8F081A843E0602069CC
:102AF00028432061A1683068BDE8F0410022FEF75C
:102B00004BBC0000B059020090260020F8B51C4CC8
:102B10002078002832D02069002658B1002560783E
:102B200000282BD1684648DF052805D030B1FEF7D4
:102B3000C1FB0AE00125F2E7012606E0009800F05B
:102B400013FDA16809B1009888479DB960780028F5
:102B500014D16088ADF800006946E06861DF05289F
:102B600003D020B1FEF7A6FB04E0012502E0D4E982
:102B700003018847002ED2D0002DE6D0F8BD00001A
:102B8000C826002070B50E460446007918494FF457
:102B9000A27501EB4010017F2068A1B14FF488714C
:102BA00001F08DFB4FF49071206801F088FB4FF429
:102BB0009271206801F083FB2946206801F07FFBB9
:102BC0000C49206809E04FF48E7101F067FB29463B
:102BD000206801F063FB08492068C0F804132068EE
:102BE00000F0E3FC3146BDE8704000F0C2BC0000DC
:102BF000A430002010030200800002002DE9FF47EE
:102C00000D464FF492770446394601F037FB4FF0FA
:102C100002094FF001084FF4827640B13946204650
:102C200001F031FB3146204601F028FBB0B3B2463B
:102C30003146204601F022FB4FF0FF36002770B3EB
:102C40005146204601F01FFB05F10C0001AB07C8FF
:102C500083E8070095F8230078B1287B01282DD060
:102C6000D4F84C05C0B28DF80600287B022828D085
:102C7000D4F84C05C0B28DF807004FF4B07120466F
:102C800001F001FB4FF4AE71204601F0FCFA95F81B
:102C9000250080B395F8230068BB3CE000E013E01A
:102CA000A868C4F80803C5F80890A868C4F8040325
:102CB000C4F82080C4F81480BDE8FF87D4F83C0530
:102CC000D0E7D4F83C05D5E74FF4A471204601F0D5
:102CD000DAFA287B80B14FF40070C4F80002801C3F
:102CE000A860C4F80863A868C4F80403C4F808809E
:102CF000C4F82080E0E708E005F10C0001AB07C84C
:102D000083E8070095F8250028B90020C4F80002E0
:102D1000AF60C4F80863D4F8C404C4F8C4048107DD
:102D200002D58DF8008006E0400702D58DF80090AE
:102D300001E08DF8007095F8250008B985F8247039
:102D4000D5E9002168469047B6E70000012181409F
:102D500003484068014201D00120704700207047BD
:102D600088260020014601208840FEF777BC00003D
:102D7000054940880A88904204D34988884201D88E
:102D800001207047002070477826002001218140F3
:102D9000C80300D0012070470A4810B5807860B1A0
:102DA000002401E0022C06D02046FFF73FFA641C05
:102DB000042CF7D310BD0324F6E7BDE81040FFF75D
:102DC0006BBA00003C26002003480179C90702D0F5
:102DD0000078FFF7CDBB70473C2600209E21018084
:102DE0002B214180002101714171A22181712F218C
:102DF000C17170472DE9F047394E002780463D46A6
:102E0000DFF8E090D6F804A057E003D00446D0F8ED
:102E10001C8035E099F8002002EB4201521CD2B22E
:102E200089F8002009EBC10199F80230091D9A4286
:102E300001D189F8005048680A780446012A12D066
:102E4000022A02D0032A3BD108E002F06DF800B15B
:102E50000127257434E00574C06900E0706800281B
:102E6000F9D170602CE0207C50BB88686060C86835
:102E7000A0600869E0604869A061F07800B1656011
:102E80006268B168184B501A20F07F40984202D215
:102E9000A168084406E0881AA16820F07F408142BA
:102EA00002D9081A206000E0256065600120A56055
:102EB00020742046E56102F019F8B8F10000A4D1B1
:102EC00099F8001099F801008142A3D117B97168EF
:102ED000514502D00120BDE8F0870020FBE700004B
:102EE000A426002070310020FFFF7F008AB0FEF78B
:102EF00029FA08B1FEF7DEF918222A496846FCF7DC
:102F0000CEF92948069029494FF48070CDE9070190
:102F100009900723264A06A96846FEF7ABFA08B1CE
:102F2000FEF7C8F923490320FFF7D8FA08B1FEF7E6
:102F3000C1F969460020FFF7D3F908B1FEF7BAF9E5
:102F4000FEF7E2FD1C4800241C49047001200870B3
:102F500000F07EFA0028FBD11748FEF72BFF00286F
:102F6000FAD015493220FEF758FF1448FEF722FF29
:102F70000028FAD011493220FEF74FFF00F054F834
:102F80000F4920460C7001F0BDFD01F03BFD01F042
:102F9000D1FC01F029FD3EDF0028FCD0FEF78AF9C4
:102FA000F9E70000E85802005728002057290020C0
:102FB000495402003D240200C42A0020D02C0020E5
:102FC000F825002070B5144682880E4605462088F4
:102FD000111D0144921C994201D8FE2A01D90C20EE
:102FE00070BD521C32542088FF21401C80B22080CA
:102FF00031542088401C80B220808119288802F03A
:10300000ACFB2188084480B22080AA8842B1A9681C
:1030100041B13044FCF743F92088A9880844208056
:10302000002070BD072070BD2DE9F04100240A4D3D
:103030004FF0A0465FF0030755F8240006EB800030
:10304000C0F8007755F82400002101F063F8641CF3
:10305000032CF1DBBDE8F081DC580200F8B50E4628
:10306000017814460546012901D1687830B12088DD
:10307000821C9A422DD8012902D006E00720F8BD13
:1030800069780144891C994223D8181A801E87B296
:10309000ADF800702188B01C084469467DDF002827
:1030A000EDD12878022805D1BDF80010B94201D829
:1030B00009210AE00821012805D16878B84202D820
:1030C000ADF8000001E0ADF80070BDF80000FE288A
:1030D00001D90C20F8BD2288401CB0542088401C27
:1030E00080B2208031542088401C2080BDF8001020
:1030F000084420800020F8BDC20800F0070301202A
:10310000895C98400840704728B1A1F12B02742ACD
:1031100003D3072070470E207047018000207047BE
:1031200070B5040010D09E20A16120806080A22094
:103130002071002504EBC500801DFFF74FFE6D1CBC
:10314000022DF7D3002070BD0E2070BD2DE9F04197
:103150008D8890B00446022D7ED20888DFF8208149
:10316000002622283CD006DC102809D011280BD0DC
:1031700021286AD150E03A280CD0552865D12BE09F
:10318000204601F03BF960E004EBC500801DFFF72D
:1031900025FE5AE02A4604EBC207488937F8061F85
:1031A000814200D8084678802B2800D22B207880D6
:1031B000A06970B1787960B1D8E90010CDE900104C
:1031C000ADF802207888ADF80400A269204669466F
:1031D00090477E713E7138E0204601F051F934E0AD
:1031E00034226846091DFCF75AF8BDF80000BDF806
:1031F000042004EBC0014A73A26932B3D8E9043257
:10320000CDE90D32ADF83600487B8DF83800A26963
:1032100020460DA9904718E00096019631F8040F5A
:1032200004EBC0000A79007B904200D31046ADF851
:103230000000ADF802000888002269468FDF020016
:1032400003D01049012000F0B1FF04EBC504A07ABF
:10325000002812D0E18800E00FE028469EDF02003F
:1032600008D0112A09D010B00749BDE8F04101206B
:1032700000F09CBFA6720120E07210B0BDE8F081A2
:10328000745902001C5B0200685A020000F1804081
:103290000068002800D00120704708B500F1804088
:1032A000002101600068009008BD000000283ED0A9
:1032B0001F49204A096800BF00BF00BF00BF00BF10
:1032C00000BF00BF00BF91422FD000BF00BF00BFB2
:1032D00000BF00BF00BF00BF00BF00BF00BF00BFF6
:1032E00000BF00BF00BF00BF00BF00BF00BF00BFE6
:1032F00000BF00BF00BF00BF00BF00BF00BF00BFD6
:1033000000BF00BF00BF00BF00BF00BF00BF00BFC5
:1033100000BF00BF00BF00BF00BF00BF00BF00BFB5
:1033200000BF00BF00BF00BF00BF401EC3D1704739
:10333000DC2600200024F40000283ED01F49204A4B
:10334000096800BF00BF00BF00BF00BF00BF00BFD3
:1033500000BF91422FD000BF00BF00BF00BF00BF21
:1033600000BF00BF00BF00BF00BF00BF00BF00BF65
:1033700000BF00BF00BF00BF00BF00BF00BF00BF55
:1033800000BF00BF00BF00BF00BF00BF00BF00BF45
:1033900000BF00BF00BF00BF00BF00BF00BF00BF35
:1033A00000BF00BF00BF00BF00BF00BF00BF00BF25
:1033B00000BF00BF00BF401EC3D17047DC26002005
:1033C0000024F40000283ED01F49204A096800BFAD
:1033D00000BF00BF00BF00BF00BF00BF00BF9142E1
:1033E0002FD000BF00BF00BF00BF00BF00BF00BFA5
:1033F00000BF00BF00BF00BF00BF00BF00BF00BFD5
:1034000000BF00BF00BF00BF00BF00BF00BF00BFC4
:1034100000BF00BF00BF00BF00BF00BF00BF00BFB4
:1034200000BF00BF00BF00BF00BF00BF00BF00BFA4
:1034300000BF00BF00BF00BF00BF00BF00BF00BF94
:1034400000BF401EC3D17047DC2600200024F400DA
:103450001FB50A4B0FCB8DE80F0008480023084A20
:103460006946083800F086FB002804D10348083874
:1034700000F070FB002004B010BD00002C590200C9
:10348000C93402002DE9F0410C4C0D4D16460F4693
:103490008046F3B23A4641460A4800F0B1FB0028A4
:1034A000F7D121466A782AB10029F2D0002169704B
:1034B000BDE8F081491EF5D1EBE70000A0860100D0
:1034C0003426002024590200017800290AD102790B
:1034D000064901202AB1012A05D0022A03D0032A75
:1034E00000D10870704748707047000034260020F3
:1034F00070B50F4C0025207808B1852516E0002115
:10350000A16061602161E1604FF0E020D0F800012E
:10351000012610F0010F03D10721002000F029F847
:1035200001F066FC08B9034806602670284670BDA5
:10353000383000201805004038B500208DF8000014
:103540006846FDF7F1FF074C207808B9FFF7D0FF78
:10355000E068401CE0600120A0709DF80000FEF7CC
:1035600007F838BD38300020002801D1FFF722B914
:1035700070474907090E002806DA00F00F0202F131
:10358000E02282F8141D03E000F1E02282F800142A
:1035900000F01F02012191404009800000F1E0206D
:1035A000C0F88012C0F800117047000B40B270479D
:1035B0002DE9F0418846054600F096FF234E00288D
:1035C00028461AD0FFF7EEF8304490F848008009FA
:1035D000032802D001280ED007E04FF0A040D0F819
:1035E0001005E84010F0010F05D003212846BDE882
:1035F000F04100F077BD0221F8E700F081FF0028DC
:1036000022D02846FFF7CEF804464FF4807000EB36
:1036100084000F4F81B207EB8400D0F8102542F0F0
:103620000102C0F81025084600F09EFDB8F1000F19
:103630000AD02846FFF7B6F856F82000002803D035
:103640000120A040C7F80403BDE8F0814C30002001
:10365000006000402DE9FC41DFF8A480044608EB3F
:103660000400002790F930001346C0170E46401C96
:1036700001D0082741E0F27819462046FFF76EF89E
:103680000546401C38D0B07850B14FF0A04000EB58
:103690008400D0F8001721F00201C0F8001707E0FD
:1036A00000217378204600910A46019100F0D2FC77
:1036B000F078C0B11348317800EB8500D0F81025C0
:1036C000114B1A40C0F810254FF4F8524FF4403314
:1036D00002EA042203EA01410A43D0F810150A4322
:1036E000C0F8102509E008EB0500327810F8481FF3
:1036F00041EA8211017000E004273846BDE8FC81F0
:103700004C30002000600040FFE0FCFF4FF0A04183
:10371000D1F81015C14011F0010000D00120704710
:1037200070B5144D95F8540008B1082070BD002004
:10373000411E2A18401CC0B282F830102028F8D34D
:1037400000242046FEF7FCFF641CE4B20C2CF8D3E6
:1037500007210620FFF70DFF4FF4BE7000F004FDB7
:1037600005494FF00040C1F80403012085F85400DA
:10377000002070BD4C30002000600040034890F8ED
:103780005400002800D00120704700004C30002079
:103790000121B1EB507F01D101207047002070471B
:1037A0000121B1EB507F01D101207047002070470B
:1037B0002DE9F84F0427174E00248246A1464FF00A
:1037C000010800BF8DF800906846FDF7ADFE08FACD
:1037D00004F5354203D02046FFF7B8FA60B19DF8F2
:1037E0000000FDF7C5FE27B104F10104AE43E4B2C9
:1037F000E8D13846BDE8F88F074908FA04F00027F9
:103800004A68104348608AF800409DF80000FDF7C0
:10381000AFFEEEE7FFFF0100882600202DE9F04112
:1038200014460D00074612D08CB10026FFF7AEFA01
:1038300078B13846FFF78AFA68B1084800EBC7004C
:10384000C0F81055C0F814453046BDE8F0810E2090
:10385000FBE70726F8E70826F6E7000000F001403E
:1038600070B505460024FFF77DFA68B12846FFF7DA
:103870008DFA18B12846FFF769FA38B104490120DA
:10388000A8400860204670BD0724FBE70824F9E73C
:1038900004F501400448017809B1852070470121F1
:1038A0000170002070470000882600202DE9F041BB
:1038B000254C064612200D46C4F808032348017C17
:1038C000022918D0027C01464FF4807891F82E101E
:1038D000012A12D00222C4F804230127077446608B
:1038E00005810022C26021B3458390F82D10304637
:1038F00000F06CFC25E0122002E0C2682AB1022030
:10390000C4F804031120BDE8F081C660058361B9E5
:103910004746384600F0A0FC0028FAD0384600F0B0
:10392000A3FC2946304600F051FC0220C4F80403F1
:1039300007E02946304600F049FC404600F094FC80
:1039400027600020DFE7000000700040D03000203A
:1039500070B50C4614490546087C08B1112070BDAD
:103960002079124E08B1012801D10020306001EB0E
:103970004500027F1AB911F82D2F521C0A70E17907
:103980000177217A41772146284600F027FC227AE8
:10399000E179284600F056FC207908B1012801D1D0
:1039A00001203060002070BDD03000200075004044
:1039B0002DE9F0411D4C054694F82C0010B108206B
:1039C000BDE8F08109B115B102E00720F8E7184D14
:1039D00044F8101B174928780860091D68780860AA
:1039E000E878A07701272777002020706077606053
:1039F000114EE0776FF00040C6F808034FF4827074
:103A000000F032FCB01500F02FFCA9780720FFF77A
:103A1000B0FD0220C6F80403A07F10B10120C6F853
:103A200004030448F03807600020C9E7D0300020C4
:103A3000A0590200F075004000700040044890F862
:103A40002E0008B1002000E004200249084470471D
:103A5000D03000200070004030B54FF4803405684D
:103A60008C4013B1C5F8044301E0C5F80843006871
:103A700000EB8100C0F8402530BD00000168012244
:103A80000A600079034A00EB400002EB800002214B
:103A900001727047C4300020F0B40468049E40F204
:103AA0000115D4F800728D40AF43C4F80072046869
:103AB000D4F800521D43C4F800523346F0BCFFF75F
:103AC000CBBF0000F8B504460D460079204900EB55
:103AD000400001EB8006307A08B10820F8BD3AB109
:103AE000326068687060002003464FF4A07709E0F8
:103AF0000720F8BD226807EB800153505158401C45
:103B0000C0B2009161798142F4D82068E978000B55
:103B100040B2FFF72EFD20686978D0F8042561F3E4
:103B20000102C0F804252068A978D0F8082561F3BF
:103B30000102C0F8082520682978D0F8102561F323
:103B40000302C0F81025012030720020F8BD0000EB
:103B5000C43000200179064A01EB8101006802EBC4
:103B6000C1010622C0F80025022081F8220070471A
:103B70000031002070B506460D4600791F4900EB64
:103B8000800001EBC00494F8220008B1082070BD49
:103B90000020C4E90023A06084F8250084F82400F4
:103BA000A87B84F82700687B10B1284601F04AFA08
:103BB000296840F20C60890001F1A041C1F80007BA
:103BC0006968890001F1A041C1F80007D5E9001238
:103BD0003068C0F80815C0F80C25A968C0F824158D
:103BE000206828B13068297B000B40B2FFF7C1FC88
:103BF000012084F82200002070BD00000031002068
:103C00003EB5074D2C68AD6800948DF80110019207
:103C100002958DF802300022694600F015F83EBD8D
:103C2000A45902003EB500250095069C8DF80110B0
:103C300002958DF8023001920CB1202200E00022A2
:103C4000694600F001F83EBD30B40379064C03EB41
:103C5000830304EBC304006813460A46014620466A
:103C600030BC01F045BA0000003100202DE9F041E0
:103C700005460079164F904607EB40140E46E07E4D
:103C800010B10820BDE8F081707F20772846FDF74D
:103C900089FC5FEA080060603169216003D0317FF0
:103CA0002846FEF76FFF287907EB4010007F0028B9
:103CB000286801D0082100E00421C0F80015002088
:103CC000E0752076A0750121E176A076DAE70000A4
:103CD000A43000202DE9F04105460079284E904699
:103CE00006EB40140F46207F18B10846FFF750FD41
:103CF00080B1626800234FF404704FF4017172B117
:103D00002A7906EB4212127F002A2A6805D0C2F8EF
:103D1000080304E01020BDE8F081C2F80813E27D3A
:103D2000B2B1227E7AB162685AB12A7906EB4212A8
:103D3000127F1AB12968C1F8040302E02868C0F8AC
:103D400004131120E7E72761012384F8188005E0B8
:103D500084F817800020E760607620762879424654
:103D600006EB40103946007F0028284603D0BDE806
:103D7000F04100F073B8BDE8F04100F01BB800005E
:103D8000A430002070B504460079094D05EB4010C1
:103D9000017F00290AD1807E002807D1204600F04B
:103DA0004FFC2179012005EB4111887670BD0000A0
:103DB000A43000202DE9F05F04460079264901EB8C
:103DC0004015A87E184302D1204600F039FC6868EF
:103DD0000028206806D04FF40171C0F804130020B9
:103DE000BDE8F09F4FF4A276314600F057FAB14695
:103DF0004FF4927A4FF4847B5146206800F049FAE0
:103E000006465946206800F044FA80464946206834
:103E100000F03FFA074648EA07003043ECD056EA84
:103E2000070007D12946206800F094FBE87D697EF1
:103E30008842E1D80020E8750EB10320D0E70FB129
:103E40000F20CDE7A97E01200029216801D008605C
:103E5000C5E74860C3E70000A43000202DE9F05F0B
:103E6000894604464FF488759A46904600260068B5
:103E7000294600F024FA4FF4A2773946206800F072
:103E80001EFA2068C0F83495C0F838852068BAF169
:103E9000000F14D0D0F8001241F02001C0F8001239
:103EA0002179DFF8648008EB4110406850B1206848
:103EB0004FF40471C0F804133046BDE8F09F0121AF
:103EC0000160EDE7AA46B9464FF4927B514620685F
:103ED00000F0F0F907464946206800F0EBF9054686
:103EE0005946206800F0E6F9014647EA0500084314
:103EF000ECD02379002208EB4310C27501B10326F0
:103F0000002DD9D00F26D7E7A43000202DE9F047A7
:103F1000054600793F4E904606EB40140F46207F41
:103F200018B10846FFF734FC30B1284600F074F8A9
:103F300020B11120BDE8F0871020FBE784F816803F
:103F4000A7600027A78228794FF0010806EB4014EC
:103F50003E46207F0028286825D04FF490794946B6
:103F600000F0ADF94FF4AC7A5146286800F0A7F99B
:103F70002868A17DA268C0F84425C0F848152868C3
:103F8000C0F808806068F0B94946286800F092F9E6
:103F900080465146286800F08DF958EA0001F3D0B8
:103FA00058BBA7750FE04FF48E7A514600F076F9B2
:103FB0002868C0F808802146286801F0B9F96168CE
:103FC0004FF4807089B13046B4E75146286800F05C
:103FD00060F910B9A08A4845F7D1A08A484505D0B4
:103FE0002146286801F0A4F900E08146A08AA17D5D
:103FF0008842EAD3A08A484501D10F26D1E751462D
:10400000286800F046F90028F9D02868C0F80C802C
:10401000C7E70000A43000200079044901EB4010FC
:10402000807D002800D0012070470000A4300020CF
:1040300070B541EA4201DDE904564FF0A04441EA7F
:10404000830141EA052104EB800041EA0641C0F802
:10405000001770BD70B541EA4201DDE904564FF02A
:10406000A04441EA830141EA052104EB800041EAD2
:104070000641C0F8001770BD70B541EA4201DDE9A4
:1040800004564FF0A04441EA830141EA052104EBC4
:10409000800041EA0641C0F8001770BD1CB500223F
:1040A0000B46009211460192FFF7E6FF1CBD1CB5BE
:1040B000002100910B46012201911146FFF7DCFF20
:1040C0001CBD4FF0A04202EB8000D0F8002722F484
:1040D0004032C0F80027D0F8002742EA0141C0F87A
:1040E000001770474FF0A04202EB8000D0F8002785
:1040F00022F44032C0F80027D0F8002742EA0141FC
:10410000C0F8001770474FF0A04201218140C2F86B
:104110000815704701224FF0A043824011B1C3F847
:1041200008257047C3F80C25704701224FF0A043C3
:10413000824011B1C3F808257047C3F80C257047B9
:1041400018B5084B6C4601441B68009306E000BF9D
:1041500054F82030D3F81035401C08C28142F7D8FB
:1041600018BD00009C590200034908B5084400210D
:1041700001600068009008BD00600040024940589E
:10418000012800D0002070470060004038B50D467F
:104190000093034B00215C6913462A46A04738BDB3
:1041A0001033002000231A46FFF7F0BF08B50123A3
:1041B00000926A46FFF7EAFF08BD1CB5CDE900236F
:1041C00002236A46FFF7E2FF1CBD0000024A1060AE
:1041D000101D0160704700002C76004010B50A7871
:1041E0004B78302402F0030204EA03131A438B785D
:1041F0004FF4E06404EA03231A43CB784FF480546D
:1042000004EA03331A430B794FF4E02404EA03432E
:104210001A434B794FF4801404EA03531A438B7901
:10422000240104EA03631A43030105481844C0F853
:104230001825CA79097AC0F81415C0F8102510BDE0
:1042400000700040030103481844C0F81425C0F86A
:10425000101570470070004002494058002800D0F7
:104260000120704700700040034908B5084400224F
:1042700002600068009008BD0070004040580028AF
:1042800000D00120704708B50022425040580090ED
:1042900008BD4058002800D00120704708B5002212
:1042A00042504058009008BDD0F80403084000D0A8
:1042B000012070474058002800D00120704708B501
:1042C000002242504058009008BD704710B550B1D0
:1042D00003280CD10220FEF7F5F8002807D0BDE82E
:1042E0001040FCF7E7BFBDE8104000F0ADBC10BDCA
:1042F00030B53A4D04460188A88889B021292CD0D0
:104300000CDC012944D0102914D011291AD013290A
:1043100021D100231A4685217FDF2EE03B2933D0AF
:10432000512939D0522924D0562914D1A0881321DB
:1043300076DF22E00720FEF7C5F808B1FCF7BAFFE8
:10434000A08807E00020FEF7BDF808B1FCF7B2FF37
:104350004FF6FF70A88009B030BD0020009001909A
:10436000A088002269468FDF33E000BFFCF7A2FF80
:10437000F1E700231A461946A9DF0028EBD009B05F
:10438000BDE83040FCF796BFA088132176DFF4E744
:10439000A088002166DFF0E71022A11D04A8FAF72B
:1043A0007EFF9DF810100029D5D09DF81800042834
:1043B00003D0062801D00528CDD102290CD0012038
:1043C0008DF800004FF4C170ADF80400A088694674
:1043D000A8DF0028CAD1BEE70220F1E7F8250020B7
:1043E0000078002807D104483B21808876DF002828
:1043F00001D0FCF75FBF7047F82500207CB58E88A0
:10440000027900EBC605AC1D2A73C97B012902D0D5
:10441000022904D101E0008800E040882080218842
:10442000608881420AD930469EDF02004FF00100C9
:104430001DD0112A1DD01049FFF7B8FEA079E179EF
:10444000884213D9002000900190287BADF800002D
:10445000287BADF802000022694630468FDF03005A
:1044600004D0324605490120FFF7A7FE7CBD6071EC
:10447000E4E72071E2E70000685A02007C5B02007A
:104480007CB506468D88C88806EBC504A41D2B287C
:1044900000D22B202188814200D80846608000206D
:1044A000207121882846ADDF020003D00C4901208D
:1044B000FFF77CFE6079002810D1B06900280DD08C
:1044C0000849D1E90201CDE90001ADF80250608848
:1044D000ADF80400B2696946304690477CBD0000E3
:1044E000C45A0200745902000449084490F930008B
:1044F000082801DB01207047002070474C30002065
:104500000449084490F93000082801D2012070477E
:10451000002070474C30002070B5012670044FF029
:10452000E0210025C1F88001084C4010C4F8480380
:10453000C4F8080366602F20FEF744FFA660044C11
:104540002F20A560FEF73EFFA57070BD0010014052
:10455000A426002070B50546C87D0C4600284FF4FF
:10456000847128460AD0FFF799FED5F81805627EB7
:10457000E1688854607E401C607670BDFFF78EFE57
:10458000D5F8180570BD30B58FB005461C216846BA
:10459000FAF79EFE00249DF80000019440F00C0004
:1045A0008DF80000039404940594069428788DF8FF
:1045B00036000220ADF834000C949DF83000142130
:1045C00020F00F00401C20F0F00010308DF830007B
:1045D0009DF8310020F00F00401C20F0F00010305A
:1045E0008DF831009DF8320020F00600801C20F08C
:1045F000180040F001008DF8320007A8FAF768FEB5
:104600000DA807900CA808900120ADF824009B206D
:10461000ADF82640ADF82800688805F10C0307AA1C
:104620006946A2DF0FB030BD1FB501238DF8003001
:104630008DF808100192D0E90012684690471FBD1E
:1046400010B5044600684FF49271FFF727FE4FF44F
:1046500084712068FFF722FE20680121016010BDEF
:104660002DE9F04106462DED028B007800287AD125
:1046700003217068FFF71AF908B1FCF71BFEA84C7C
:104680000021A84D94F90000420001E002291BD04E
:10469000736813F8113003F0FE0701EB810302EB9E
:1046A00043032B445F70776837F81170491CC7F3D8
:1046B00003279F700329E9DB94F90110491E884202
:1046C0000DDA401C20701EE17168097901F0FE01CD
:1046D000697571688988C1F30321A975ECE7002029
:1046E000207090483430FDF77DFBDFED8F8A9FED21
:1046F0008F8AC8B38B483430FDF7D2FB894884EDEC
:10470000070A3430FDF7B4FB864884ED080A3430DC
:10471000FDF7B6FB834884ED090A3430FDF7B8FB9A
:1047200084ED0A0AD4ED070AF5EEC00AF1EE10FA9C
:1047300004DB60EEA80AFDEEE00A05E0B0EE481AE0
:1047400000EEE81AFDEEC10A10EE900A2081D4EDC9
:10475000080AF5EEC00AF1EE10FA06DB60EEA80AD0
:10476000FDEEE00A07E0D6E040E0B0EE481A00EEC9
:10477000E81AFDEEC10A10EE900A6081D4ED090A34
:10478000F5EEC00AF1EE10FA04DB60EEA80AFDEEC9
:10479000E00A05E0B0EE481A00EEE81AFDEEC10AA4
:1047A000B5EEC00A10EE900AF1EE10FAA08104DB1B
:1047B00020EE280ABDEEC00A05E0F0EE480A40EE01
:1047C000680ABDEEE00A10EE100AE0812089E87563
:1047D000000A287660896876000AA876A089E876BB
:1047E000000A2877E0896877000AA8775048FDF723
:1047F000F9FAA0B34E48FDF753FB84ED0B0A4C4881
:10480000FDF736FB84ED0C0A4948FDF739FB84EDD2
:104810000D0A4748FDF73CFB84ED0E0AD4ED0B0A68
:10482000F5EEC00AF1EE10FA04DB60EEA80AFDEE28
:10483000E00A05E0B0EE481A00EEE81AFDEEC10A03
:1048400010EE900A2082D4ED0C0AF5EEC00AF1EECB
:1048500010FA05DB60EEA80AFDEEE00A06E045E08E
:10486000B0EE481A00EEE81AFDEEC10A10EE900A0A
:104870006082D4ED0D0AF5EEC00AF1EE10FA04DB09
:1048800060EEA80AFDEEE00A05E0B0EE481A00EE80
:10489000E81AFDEEC10AB5EEC00A10EE900AF1EE7C
:1048A00010FAA08204DB20EE280ABDEEC00A03E065
:1048B00000EE688ABDEEC80A10EE100AE082208A77
:1048C000E877000A85F82000608A85F82100000A50
:1048D00085F82200A08A85F82300000A85F82400C4
:1048E000E08A85F82500000A85F82600FF200D499A
:1048F00028702722A1F13800FDF7D2F9082802D04C
:1049000008B1FCF7D7FC94F90000BDEC028BBDE8C0
:10491000F04100F0F7B8BDEC028BBDE8F08100007B
:10492000F8250020902A00200000C8420000004521
:10493000D02C002070B529498AB00DF10C0C0DC99E
:104940008DE80D0001208DF80300042300228DF86E
:1049500002308DF8052070C98CE870008DF80F00CA
:104960008DF80E308DF811201AC906AD85E81A00B1
:104970008DF81B0003208DF81A0018488DF81D20B3
:1049800017493C38FFF714F808B1FCF793FC694667
:104990000020FEF7DDFF08B1FCF78CFC03A9012025
:1049A000FEF7D6FF08B1FCF785FC06A90220FEF74A
:1049B000CFFF08B1FCF77EFC03210A48FEF776FF23
:1049C00008B1FCF777FC07480321801DFEF76EFF56
:1049D000002801D0FCF76EFC0AB070BD005902003F
:1049E00061460200B82A0020054810B5C078FEF7DD
:1049F00037FF002803D0BDE81040FCF75BBC10BDBA
:104A0000F82500203EB5FEF745FF08B1FCF752FC43
:104A10001C491D4AD1E90401CDE9010109208DF8A5
:104A20000400184801A90830FFF74CF808B1FCF75A
:104A300041FC144C08342068D0F81005134A0123B7
:104A4000C2400020014600902046FFF725F820468E
:104A5000FFF714F8246804F5A074FEF7EFFF05468D
:104A60000B48FEF7A5FE08B1FCF724FC08482A46CF
:104A7000C01E2146C078FEF7D1FE002801D0FCF709
:104A800019FC3EBDC45802006B4E02008038010084
:104A9000FB25002010B50446FCF736FA40B1002C87
:104AA00009DA04F00F0000F1E02090F8140D06E0A0
:104AB00042F2010010BD04F1E02090F80004410929
:104AC000082914D299B1012911D004290FD0052940
